{
  "address": "0x3866de5adD16630e941F8989a37f14525AC4223F",
  "abi": [
    {
      "inputs": [
        {
          "internalType": "address",
          "name": "_router",
          "type": "address"
        },
        {
          "internalType": "address",
          "name": "_link",
          "type": "address"
        },
        {
          "internalType": "address",
          "name": "nftAddress",
          "type": "address"
        }
      ],
      "stateMutability": "nonpayable",
      "type": "constructor"
    },
    {
      "inputs": [
        {
          "internalType": "uint64",
          "name": "destinationChainSelector",
          "type": "uint64"
        }
      ],
      "name": "DestinationChainNotAllowlisted",
      "type": "error"
    },
    {
      "inputs": [
        {
          "internalType": "address",
          "name": "owner",
          "type": "address"
        },
        {
          "internalType": "address",
          "name": "target",
          "type": "address"
        },
        {
          "internalType": "uint256",
          "name": "value",
          "type": "uint256"
        }
      ],
      "name": "FailedToWithdrawEth",
      "type": "error"
    },
    {
      "inputs": [],
      "name": "InvalidReceiverAddress",
      "type": "error"
    },
    {
      "inputs": [
        {
          "internalType": "address",
          "name": "router",
          "type": "address"
        }
      ],
      "name": "InvalidRouter",
      "type": "error"
    },
    {
      "inputs": [
        {
          "internalType": "uint256",
          "name": "currentBalance",
          "type": "uint256"
        },
        {
          "internalType": "uint256",
          "name": "calculatedFees",
          "type": "uint256"
        }
      ],
      "name": "NotEnoughBalance",
      "type": "error"
    },
    {
      "inputs": [],
      "name": "NothingToWithdraw",
      "type": "error"
    },
    {
      "inputs": [
        {
          "internalType": "address",
          "name": "sender",
          "type": "address"
        }
      ],
      "name": "SenderNotAllowlisted",
      "type": "error"
    },
    {
      "inputs": [
        {
          "internalType": "uint64",
          "name": "sourceChainSelector",
          "type": "uint64"
        }
      ],
      "name": "SourceChainNotAllowlisted",
      "type": "error"
    },
    {
      "anonymous": false,
      "inputs": [
        {
          "indexed": true,
          "internalType": "bytes32",
          "name": "messageId",
          "type": "bytes32"
        },
        {
          "indexed": true,
          "internalType": "uint64",
          "name": "destinationChainSelector",
          "type": "uint64"
        },
        {
          "indexed": false,
          "internalType": "address",
          "name": "receiver",
          "type": "address"
        },
        {
          "indexed": false,
          "internalType": "bytes",
          "name": "text",
          "type": "bytes"
        },
        {
          "indexed": false,
          "internalType": "address",
          "name": "feeToken",
          "type": "address"
        },
        {
          "indexed": false,
          "internalType": "uint256",
          "name": "fees",
          "type": "uint256"
        }
      ],
      "name": "MessageSent",
      "type": "event"
    },
    {
      "anonymous": false,
      "inputs": [
        {
          "indexed": true,
          "internalType": "address",
          "name": "from",
          "type": "address"
        },
        {
          "indexed": true,
          "internalType": "address",
          "name": "to",
          "type": "address"
        }
      ],
      "name": "OwnershipTransferRequested",
      "type": "event"
    },
    {
      "anonymous": false,
      "inputs": [
        {
          "indexed": true,
          "internalType": "address",
          "name": "from",
          "type": "address"
        },
        {
          "indexed": true,
          "internalType": "address",
          "name": "to",
          "type": "address"
        }
      ],
      "name": "OwnershipTransferred",
      "type": "event"
    },
    {
      "anonymous": false,
      "inputs": [
        {
          "indexed": false,
          "internalType": "address",
          "name": "newOwner",
          "type": "address"
        },
        {
          "indexed": false,
          "internalType": "uint256",
          "name": "tokenId",
          "type": "uint256"
        }
      ],
      "name": "TokenUnlocked",
      "type": "event"
    },
    {
      "inputs": [],
      "name": "acceptOwnership",
      "outputs": [],
      "stateMutability": "nonpayable",
      "type": "function"
    },
    {
      "inputs": [
        {
          "components": [
            {
              "internalType": "bytes32",
              "name": "messageId",
              "type": "bytes32"
            },
            {
              "internalType": "uint64",
              "name": "sourceChainSelector",
              "type": "uint64"
            },
            {
              "internalType": "bytes",
              "name": "sender",
              "type": "bytes"
            },
            {
              "internalType": "bytes",
              "name": "data",
              "type": "bytes"
            },
            {
              "components": [
                {
                  "internalType": "address",
                  "name": "token",
                  "type": "address"
                },
                {
                  "internalType": "uint256",
                  "name": "amount",
                  "type": "uint256"
                }
              ],
              "internalType": "struct Client.EVMTokenAmount[]",
              "name": "destTokenAmounts",
              "type": "tuple[]"
            }
          ],
          "internalType": "struct Client.Any2EVMMessage",
          "name": "message",
          "type": "tuple"
        }
      ],
      "name": "ccipReceive",
      "outputs": [],
      "stateMutability": "nonpayable",
      "type": "function"
    },
    {
      "inputs": [],
      "name": "getLastReceivedMessageDetails",
      "outputs": [
        {
          "internalType": "bytes32",
          "name": "messageId",
          "type": "bytes32"
        },
        {
          "internalType": "string",
          "name": "text",
          "type": "string"
        }
      ],
      "stateMutability": "view",
      "type": "function"
    },
    {
      "inputs": [],
      "name": "getRouter",
      "outputs": [
        {
          "internalType": "address",
          "name": "",
          "type": "address"
        }
      ],
      "stateMutability": "view",
      "type": "function"
    },
    {
      "inputs": [
        {
          "internalType": "uint256",
          "name": "tokenId",
          "type": "uint256"
        },
        {
          "internalType": "address",
          "name": "newOwner",
          "type": "address"
        },
        {
          "internalType": "uint64",
          "name": "chainSelector",
          "type": "uint64"
        },
        {
          "internalType": "address",
          "name": "receiver",
          "type": "address"
        }
      ],
      "name": "lockAndSendNFT",
      "outputs": [
        {
          "internalType": "bytes32",
          "name": "messageId",
          "type": "bytes32"
        }
      ],
      "stateMutability": "nonpayable",
      "type": "function"
    },
    {
      "inputs": [],
      "name": "nft",
      "outputs": [
        {
          "internalType": "contract MyToken",
          "name": "",
          "type": "address"
        }
      ],
      "stateMutability": "view",
      "type": "function"
    },
    {
      "inputs": [],
      "name": "owner",
      "outputs": [
        {
          "internalType": "address",
          "name": "",
          "type": "address"
        }
      ],
      "stateMutability": "view",
      "type": "function"
    },
    {
      "inputs": [
        {
          "internalType": "uint64",
          "name": "_destinationChainSelector",
          "type": "uint64"
        },
        {
          "internalType": "address",
          "name": "_receiver",
          "type": "address"
        },
        {
          "internalType": "bytes",
          "name": "_text",
          "type": "bytes"
        }
      ],
      "name": "sendMessagePayNative",
      "outputs": [
        {
          "internalType": "bytes32",
          "name": "messageId",
          "type": "bytes32"
        }
      ],
      "stateMutability": "nonpayable",
      "type": "function"
    },
    {
      "inputs": [
        {
          "internalType": "bytes4",
          "name": "interfaceId",
          "type": "bytes4"
        }
      ],
      "name": "supportsInterface",
      "outputs": [
        {
          "internalType": "bool",
          "name": "",
          "type": "bool"
        }
      ],
      "stateMutability": "pure",
      "type": "function"
    },
    {
      "inputs": [
        {
          "internalType": "address",
          "name": "to",
          "type": "address"
        }
      ],
      "name": "transferOwnership",
      "outputs": [],
      "stateMutability": "nonpayable",
      "type": "function"
    },
    {
      "inputs": [
        {
          "internalType": "address",
          "name": "_beneficiary",
          "type": "address"
        }
      ],
      "name": "withdraw",
      "outputs": [],
      "stateMutability": "nonpayable",
      "type": "function"
    },
    {
      "inputs": [
        {
          "internalType": "address",
          "name": "_beneficiary",
          "type": "address"
        },
        {
          "internalType": "address",
          "name": "_token",
          "type": "address"
        }
      ],
      "name": "withdrawToken",
      "outputs": [],
      "stateMutability": "nonpayable",
      "type": "function"
    },
    {
      "stateMutability": "payable",
      "type": "receive"
    }
  ],
  "transactionHash": "0x4ec939cf495d02b3730b8360f1872176285031c8f68bc50f69dd587cafe5edcd",
  "args": [
    "0xB4431A6c63F72916151fEA2864DBB13b8ce80E8a",
    "0xF64E6E064a71B45514691D397ad4204972cD6508",
    "0x19713cAd0dBfF776D5DdFC3AC1D6CF2250074ACE"
  ],
  "numDeployments": 1,
  "solcInputHash": "62cbd00b4d4a2426cd799c7a0b1abadd",
  "bytecode": "0x60a060405234801561001057600080fd5b50604051612fe3380380612fe3833981810160405281019061003291906103ed565b3380600085600073ffffffffffffffffffffffffffffffffffffffff168173ffffffffffffffffffffffffffffffffffffffff16036100a95760006040517fd7f733340000000000000000000000000000000000000000000000000000000081526004016100a0919061044f565b60405180910390fd5b8073ffffffffffffffffffffffffffffffffffffffff1660808173ffffffffffffffffffffffffffffffffffffffff168152505050600073ffffffffffffffffffffffffffffffffffffffff168273ffffffffffffffffffffffffffffffffffffffff160361014d576040517f08c379a0000000000000000000000000000000000000000000000000000000008152600401610144906104c7565b60405180910390fd5b816000806101000a81548173ffffffffffffffffffffffffffffffffffffffff021916908373ffffffffffffffffffffffffffffffffffffffff160217905550600073ffffffffffffffffffffffffffffffffffffffff168173ffffffffffffffffffffffffffffffffffffffff16146101d1576101d08161025e60201b60201c565b5b50505081600460006101000a81548173ffffffffffffffffffffffffffffffffffffffff021916908373ffffffffffffffffffffffffffffffffffffffff16021790555080600560006101000a81548173ffffffffffffffffffffffffffffffffffffffff021916908373ffffffffffffffffffffffffffffffffffffffff160217905550505050610553565b3373ffffffffffffffffffffffffffffffffffffffff168173ffffffffffffffffffffffffffffffffffffffff16036102cc576040517f08c379a00000000000000000000000000000000000000000000000000000000081526004016102c390610533565b60405180910390fd5b80600160006101000a81548173ffffffffffffffffffffffffffffffffffffffff021916908373ffffffffffffffffffffffffffffffffffffffff1602179055508073ffffffffffffffffffffffffffffffffffffffff1660008054906101000a900473ffffffffffffffffffffffffffffffffffffffff1673ffffffffffffffffffffffffffffffffffffffff167fed8889f560326eb138920d842192f0eb3dd22b4f139c87a2c57538e05bae127860405160405180910390a350565b600080fd5b600073ffffffffffffffffffffffffffffffffffffffff82169050919050565b60006103ba8261038f565b9050919050565b6103ca816103af565b81146103d557600080fd5b50565b6000815190506103e7816103c1565b92915050565b6000806000606084860312156104065761040561038a565b5b6000610414868287016103d8565b9350506020610425868287016103d8565b9250506040610436868287016103d8565b9150509250925092565b610449816103af565b82525050565b60006020820190506104646000830184610440565b92915050565b600082825260208201905092915050565b7f43616e6e6f7420736574206f776e657220746f207a65726f0000000000000000600082015250565b60006104b160188361046a565b91506104bc8261047b565b602082019050919050565b600060208201905081810360008301526104e0816104a4565b9050919050565b7f43616e6e6f74207472616e7366657220746f2073656c66000000000000000000600082015250565b600061051d60178361046a565b9150610528826104e7565b602082019050919050565b6000602082019050818103600083015261054c81610510565b9050919050565b608051612a7561056e60003960006108a70152612a756000f3fe6080604052600436106100ab5760003560e01c806385572ffb1161006457806385572ffb146101b45780638da5cb5b146101dd578063b0f479a114610208578063d60a58b914610233578063e34ed57514610270578063f2fde38b146102ad576100b2565b806301ffc9a7146100b7578063263596a5146100f45780633aeac4e11461012057806347ccca021461014957806351cff8d91461017457806379ba50971461019d576100b2565b366100b257005b600080fd5b3480156100c357600080fd5b506100de60048036038101906100d991906118ff565b6102d6565b6040516100eb9190611947565b60405180910390f35b34801561010057600080fd5b506101096103a8565b604051610117929190611a0b565b60405180910390f35b34801561012c57600080fd5b5061014760048036038101906101429190611a99565b610445565b005b34801561015557600080fd5b5061015e610535565b60405161016b9190611b38565b60405180910390f35b34801561018057600080fd5b5061019b60048036038101906101969190611b53565b61055b565b005b3480156101a957600080fd5b506101b2610659565b005b3480156101c057600080fd5b506101db60048036038101906101d69190611ba4565b6107ee565b005b3480156101e957600080fd5b506101f261087a565b6040516101ff9190611bfc565b60405180910390f35b34801561021457600080fd5b5061021d6108a3565b60405161022a9190611bfc565b60405180910390f35b34801561023f57600080fd5b5061025a60048036038101906102559190611d8c565b6108cb565b6040516102679190611dfb565b60405180910390f35b34801561027c57600080fd5b5061029760048036038101906102929190611e4c565b610b5c565b6040516102a49190611dfb565b60405180910390f35b3480156102b957600080fd5b506102d460048036038101906102cf9190611b53565b610c2b565b005b60007f85572ffb000000000000000000000000000000000000000000000000000000007bffffffffffffffffffffffffffffffffffffffffffffffffffffffff1916827bffffffffffffffffffffffffffffffffffffffffffffffffffffffff191614806103a157507f01ffc9a7000000000000000000000000000000000000000000000000000000007bffffffffffffffffffffffffffffffffffffffffffffffffffffffff1916827bffffffffffffffffffffffffffffffffffffffffffffffffffffffff1916145b9050919050565b6000606060025460038080546103bd90611ee2565b80601f01602080910402602001604051908101604052809291908181526020018280546103e990611ee2565b80156104365780601f1061040b57610100808354040283529160200191610436565b820191906000526020600020905b81548152906001019060200180831161041957829003601f168201915b50505050509050915091509091565b61044d610c3f565b60008173ffffffffffffffffffffffffffffffffffffffff166370a08231306040518263ffffffff1660e01b81526004016104889190611bfc565b602060405180830381865afa1580156104a5573d6000803e3d6000fd5b505050506040513d601f19601f820116820180604052508101906104c99190611f28565b905060008103610505576040517fd0d04f6000000000000000000000000000000000000000000000000000000000815260040160405180910390fd5b61053083828473ffffffffffffffffffffffffffffffffffffffff16610ccf9092919063ffffffff16565b505050565b600560009054906101000a900473ffffffffffffffffffffffffffffffffffffffff1681565b610563610c3f565b6000479050600081036105a2576040517fd0d04f6000000000000000000000000000000000000000000000000000000000815260040160405180910390fd5b60008273ffffffffffffffffffffffffffffffffffffffff16826040516105c890611f86565b60006040518083038185875af1925050503d8060008114610605576040519150601f19603f3d011682016040523d82523d6000602084013e61060a565b606091505b5050905080610654573383836040517f9d11f56300000000000000000000000000000000000000000000000000000000815260040161064b93929190611faa565b60405180910390fd5b505050565b600160009054906101000a900473ffffffffffffffffffffffffffffffffffffffff1673ffffffffffffffffffffffffffffffffffffffff163373ffffffffffffffffffffffffffffffffffffffff16146106e9576040517f08c379a00000000000000000000000000000000000000000000000000000000081526004016106e09061202d565b60405180910390fd5b60008060009054906101000a900473ffffffffffffffffffffffffffffffffffffffff169050336000806101000a81548173ffffffffffffffffffffffffffffffffffffffff021916908373ffffffffffffffffffffffffffffffffffffffff1602179055506000600160006101000a81548173ffffffffffffffffffffffffffffffffffffffff021916908373ffffffffffffffffffffffffffffffffffffffff1602179055503373ffffffffffffffffffffffffffffffffffffffff168173ffffffffffffffffffffffffffffffffffffffff167f8be0079c531659141344cd1fd0a4f28419497f9722a3daafe3b4186f6b6457e060405160405180910390a350565b6107f66108a3565b73ffffffffffffffffffffffffffffffffffffffff163373ffffffffffffffffffffffffffffffffffffffff161461086557336040517fd7f7333400000000000000000000000000000000000000000000000000000000815260040161085c9190611bfc565b60405180910390fd5b610877816108729061227b565b610d55565b50565b60008060009054906101000a900473ffffffffffffffffffffffffffffffffffffffff16905090565b60007f0000000000000000000000000000000000000000000000000000000000000000905090565b60006108d5610c3f565b82600073ffffffffffffffffffffffffffffffffffffffff168173ffffffffffffffffffffffffffffffffffffffff160361093c576040517fa05ff47e00000000000000000000000000000000000000000000000000000000815260040160405180910390fd5b600061094a85856000610e53565b905060003073ffffffffffffffffffffffffffffffffffffffff1663b0f479a16040518163ffffffff1660e01b8152600401602060405180830381865afa158015610999573d6000803e3d6000fd5b505050506040513d601f19601f820116820180604052508101906109bd91906122a3565b905060008173ffffffffffffffffffffffffffffffffffffffff166320487ded89856040518363ffffffff1660e01b81526004016109fc9291906124bb565b602060405180830381865afa158015610a19573d6000803e3d6000fd5b505050506040513d601f19601f82011682018060405250810190610a3d9190611f28565b905047811115610a865747816040517f8f0f4206000000000000000000000000000000000000000000000000000000008152600401610a7d9291906124eb565b60405180910390fd5b8173ffffffffffffffffffffffffffffffffffffffff166396f4e9f9828a866040518463ffffffff1660e01b8152600401610ac29291906124bb565b60206040518083038185885af1158015610ae0573d6000803e3d6000fd5b50505050506040513d601f19601f82011682018060405250810190610b059190612529565b94508767ffffffffffffffff16857f3d8a9f055772202d2c3c1fddbad930d3dbe588d8692b75b84cee0719462829118989600086604051610b4994939291906125a0565b60405180910390a3505050509392505050565b6000600560009054906101000a900473ffffffffffffffffffffffffffffffffffffffff1673ffffffffffffffffffffffffffffffffffffffff166323b872dd3330886040518463ffffffff1660e01b8152600401610bbd93929190611faa565b600060405180830381600087803b158015610bd757600080fd5b505af1158015610beb573d6000803e3d6000fd5b5050505060008585604051602001610c049291906125ec565b6040516020818303038152906040529050610c20848483610f36565b915050949350505050565b610c33610c3f565b610c3c816113df565b50565b60008054906101000a900473ffffffffffffffffffffffffffffffffffffffff1673ffffffffffffffffffffffffffffffffffffffff163373ffffffffffffffffffffffffffffffffffffffff1614610ccd576040517f08c379a0000000000000000000000000000000000000000000000000000000008152600401610cc490612661565b60405180910390fd5b565b610d508363a9059cbb60e01b8484604051602401610cee929190612681565b604051602081830303815290604052907bffffffffffffffffffffffffffffffffffffffffffffffffffffffff19166020820180517bffffffffffffffffffffffffffffffffffffffffffffffffffffffff838183161783525050505061150b565b505050565b60008160600151806020019051810190610d6f91906126fa565b9050600081600001519050600082602001519050600560009054906101000a900473ffffffffffffffffffffffffffffffffffffffff1673ffffffffffffffffffffffffffffffffffffffff166323b872dd3083856040518463ffffffff1660e01b8152600401610de293929190611faa565b600060405180830381600087803b158015610dfc57600080fd5b505af1158015610e10573d6000803e3d6000fd5b505050507f613edbda9d1e6bda8af8e869a973f88cccf93854a11f351589038de07e1ab4e38183604051610e45929190612681565b60405180910390a150505050565b610e5b61181e565b6040518060a0016040528085604051602001610e779190611bfc565b6040516020818303038152906040528152602001848152602001600067ffffffffffffffff811115610eac57610eab611c61565b5b604051908082528060200260200182016040528015610ee557816020015b610ed2611863565b815260200190600190039081610eca5790505b5081526020018373ffffffffffffffffffffffffffffffffffffffff168152602001610f2a604051806040016040528062030d408152602001600115158152506115d2565b81525090509392505050565b6000610f40610c3f565b82600073ffffffffffffffffffffffffffffffffffffffff168173ffffffffffffffffffffffffffffffffffffffff1603610fa7576040517fa05ff47e00000000000000000000000000000000000000000000000000000000815260040160405180910390fd5b6000610fd68585600460009054906101000a900473ffffffffffffffffffffffffffffffffffffffff16610e53565b905060003073ffffffffffffffffffffffffffffffffffffffff1663b0f479a16040518163ffffffff1660e01b8152600401602060405180830381865afa158015611025573d6000803e3d6000fd5b505050506040513d601f19601f8201168201806040525081019061104991906122a3565b905060008173ffffffffffffffffffffffffffffffffffffffff166320487ded89856040518363ffffffff1660e01b81526004016110889291906124bb565b602060405180830381865afa1580156110a5573d6000803e3d6000fd5b505050506040513d601f19601f820116820180604052508101906110c99190611f28565b9050600460009054906101000a900473ffffffffffffffffffffffffffffffffffffffff1673ffffffffffffffffffffffffffffffffffffffff166370a08231306040518263ffffffff1660e01b81526004016111269190611bfc565b602060405180830381865afa158015611143573d6000803e3d6000fd5b505050506040513d601f19601f820116820180604052508101906111679190611f28565b81111561124857600460009054906101000a900473ffffffffffffffffffffffffffffffffffffffff1673ffffffffffffffffffffffffffffffffffffffff166370a08231306040518263ffffffff1660e01b81526004016111c99190611bfc565b602060405180830381865afa1580156111e6573d6000803e3d6000fd5b505050506040513d601f19601f8201168201806040525081019061120a9190611f28565b816040517f8f0f420600000000000000000000000000000000000000000000000000000000815260040161123f9291906124eb565b60405180910390fd5b600460009054906101000a900473ffffffffffffffffffffffffffffffffffffffff1673ffffffffffffffffffffffffffffffffffffffff1663095ea7b383836040518363ffffffff1660e01b81526004016112a5929190612681565b6020604051808303816000875af11580156112c4573d6000803e3d6000fd5b505050506040513d601f19601f820116820180604052508101906112e89190612753565b508173ffffffffffffffffffffffffffffffffffffffff166396f4e9f989856040518363ffffffff1660e01b81526004016113249291906124bb565b6020604051808303816000875af1158015611343573d6000803e3d6000fd5b505050506040513d601f19601f820116820180604052508101906113679190612529565b94508767ffffffffffffffff16857f3d8a9f055772202d2c3c1fddbad930d3dbe588d8692b75b84cee0719462829118989600460009054906101000a900473ffffffffffffffffffffffffffffffffffffffff16866040516113cc94939291906125a0565b60405180910390a3505050509392505050565b3373ffffffffffffffffffffffffffffffffffffffff168173ffffffffffffffffffffffffffffffffffffffff160361144d576040517f08c379a0000000000000000000000000000000000000000000000000000000008152600401611444906127cc565b60405180910390fd5b80600160006101000a81548173ffffffffffffffffffffffffffffffffffffffff021916908373ffffffffffffffffffffffffffffffffffffffff1602179055508073ffffffffffffffffffffffffffffffffffffffff1660008054906101000a900473ffffffffffffffffffffffffffffffffffffffff1673ffffffffffffffffffffffffffffffffffffffff167fed8889f560326eb138920d842192f0eb3dd22b4f139c87a2c57538e05bae127860405160405180910390a350565b600061156d826040518060400160405280602081526020017f5361666545524332303a206c6f772d6c6576656c2063616c6c206661696c65648152508573ffffffffffffffffffffffffffffffffffffffff166116519092919063ffffffff16565b90506000815111156115cd578080602001905181019061158d9190612753565b6115cc576040517f08c379a00000000000000000000000000000000000000000000000000000000081526004016115c39061285e565b60405180910390fd5b5b505050565b606063181dcf1060e01b826040516024016115ed91906128bc565b604051602081830303815290604052907bffffffffffffffffffffffffffffffffffffffffffffffffffffffff19166020820180517bffffffffffffffffffffffffffffffffffffffffffffffffffffffff83818316178352505050509050919050565b60606116608484600085611669565b90509392505050565b6060824710156116ae576040517f08c379a00000000000000000000000000000000000000000000000000000000081526004016116a590612949565b60405180910390fd5b6000808673ffffffffffffffffffffffffffffffffffffffff1685876040516116d7919061299a565b60006040518083038185875af1925050503d8060008114611714576040519150601f19603f3d011682016040523d82523d6000602084013e611719565b606091505b509150915061172a87838387611736565b92505050949350505050565b6060831561179857600083510361179057611750856117ab565b61178f576040517f08c379a0000000000000000000000000000000000000000000000000000000008152600401611786906129fd565b60405180910390fd5b5b8290506117a3565b6117a283836117ce565b5b949350505050565b6000808273ffffffffffffffffffffffffffffffffffffffff163b119050919050565b6000825111156117e15781518083602001fd5b806040517f08c379a00000000000000000000000000000000000000000000000000000000081526004016118159190612a1d565b60405180910390fd5b6040518060a00160405280606081526020016060815260200160608152602001600073ffffffffffffffffffffffffffffffffffffffff168152602001606081525090565b6040518060400160405280600073ffffffffffffffffffffffffffffffffffffffff168152602001600081525090565b6000604051905090565b600080fd5b600080fd5b60007fffffffff0000000000000000000000000000000000000000000000000000000082169050919050565b6118dc816118a7565b81146118e757600080fd5b50565b6000813590506118f9816118d3565b92915050565b6000602082840312156119155761191461189d565b5b6000611923848285016118ea565b91505092915050565b60008115159050919050565b6119418161192c565b82525050565b600060208201905061195c6000830184611938565b92915050565b6000819050919050565b61197581611962565b82525050565b600081519050919050565b600082825260208201905092915050565b60005b838110156119b557808201518184015260208101905061199a565b60008484015250505050565b6000601f19601f8301169050919050565b60006119dd8261197b565b6119e78185611986565b93506119f7818560208601611997565b611a00816119c1565b840191505092915050565b6000604082019050611a20600083018561196c565b8181036020830152611a3281846119d2565b90509392505050565b600073ffffffffffffffffffffffffffffffffffffffff82169050919050565b6000611a6682611a3b565b9050919050565b611a7681611a5b565b8114611a8157600080fd5b50565b600081359050611a9381611a6d565b92915050565b60008060408385031215611ab057611aaf61189d565b5b6000611abe85828601611a84565b9250506020611acf85828601611a84565b9150509250929050565b6000819050919050565b6000611afe611af9611af484611a3b565b611ad9565b611a3b565b9050919050565b6000611b1082611ae3565b9050919050565b6000611b2282611b05565b9050919050565b611b3281611b17565b82525050565b6000602082019050611b4d6000830184611b29565b92915050565b600060208284031215611b6957611b6861189d565b5b6000611b7784828501611a84565b91505092915050565b600080fd5b600060a08284031215611b9b57611b9a611b80565b5b81905092915050565b600060208284031215611bba57611bb961189d565b5b600082013567ffffffffffffffff811115611bd857611bd76118a2565b5b611be484828501611b85565b91505092915050565b611bf681611a5b565b82525050565b6000602082019050611c116000830184611bed565b92915050565b600067ffffffffffffffff82169050919050565b611c3481611c17565b8114611c3f57600080fd5b50565b600081359050611c5181611c2b565b92915050565b600080fd5b600080fd5b7f4e487b7100000000000000000000000000000000000000000000000000000000600052604160045260246000fd5b611c99826119c1565b810181811067ffffffffffffffff82111715611cb857611cb7611c61565b5b80604052505050565b6000611ccb611893565b9050611cd78282611c90565b919050565b600067ffffffffffffffff821115611cf757611cf6611c61565b5b611d00826119c1565b9050602081019050919050565b82818337600083830152505050565b6000611d2f611d2a84611cdc565b611cc1565b905082815260208101848484011115611d4b57611d4a611c5c565b5b611d56848285611d0d565b509392505050565b600082601f830112611d7357611d72611c57565b5b8135611d83848260208601611d1c565b91505092915050565b600080600060608486031215611da557611da461189d565b5b6000611db386828701611c42565b9350506020611dc486828701611a84565b925050604084013567ffffffffffffffff811115611de557611de46118a2565b5b611df186828701611d5e565b9150509250925092565b6000602082019050611e10600083018461196c565b92915050565b6000819050919050565b611e2981611e16565b8114611e3457600080fd5b50565b600081359050611e4681611e20565b92915050565b60008060008060808587031215611e6657611e6561189d565b5b6000611e7487828801611e37565b9450506020611e8587828801611a84565b9350506040611e9687828801611c42565b9250506060611ea787828801611a84565b91505092959194509250565b7f4e487b7100000000000000000000000000000000000000000000000000000000600052602260045260246000fd5b60006002820490506001821680611efa57607f821691505b602082108103611f0d57611f0c611eb3565b5b50919050565b600081519050611f2281611e20565b92915050565b600060208284031215611f3e57611f3d61189d565b5b6000611f4c84828501611f13565b91505092915050565b600081905092915050565b50565b6000611f70600083611f55565b9150611f7b82611f60565b600082019050919050565b6000611f9182611f63565b9150819050919050565b611fa481611e16565b82525050565b6000606082019050611fbf6000830186611bed565b611fcc6020830185611bed565b611fd96040830184611f9b565b949350505050565b7f4d7573742062652070726f706f736564206f776e657200000000000000000000600082015250565b6000612017601683611986565b915061202282611fe1565b602082019050919050565b600060208201905081810360008301526120468161200a565b9050919050565b600080fd5b600080fd5b61206081611962565b811461206b57600080fd5b50565b60008135905061207d81612057565b92915050565b600067ffffffffffffffff82111561209e5761209d611c61565b5b602082029050602081019050919050565b600080fd5b6000604082840312156120ca576120c961204d565b5b6120d46040611cc1565b905060006120e484828501611a84565b60008301525060206120f884828501611e37565b60208301525092915050565b600061211761211284612083565b611cc1565b9050808382526020820190506040840283018581111561213a576121396120af565b5b835b81811015612163578061214f88826120b4565b84526020840193505060408101905061213c565b5050509392505050565b600082601f83011261218257612181611c57565b5b8135612192848260208601612104565b91505092915050565b600060a082840312156121b1576121b061204d565b5b6121bb60a0611cc1565b905060006121cb8482850161206e565b60008301525060206121df84828501611c42565b602083015250604082013567ffffffffffffffff81111561220357612202612052565b5b61220f84828501611d5e565b604083015250606082013567ffffffffffffffff81111561223357612232612052565b5b61223f84828501611d5e565b606083015250608082013567ffffffffffffffff81111561226357612262612052565b5b61226f8482850161216d565b60808301525092915050565b6000612287368361219b565b9050919050565b60008151905061229d81611a6d565b92915050565b6000602082840312156122b9576122b861189d565b5b60006122c78482850161228e565b91505092915050565b6122d981611c17565b82525050565b600081519050919050565b600082825260208201905092915050565b6000612306826122df565b61231081856122ea565b9350612320818560208601611997565b612329816119c1565b840191505092915050565b600081519050919050565b600082825260208201905092915050565b6000819050602082019050919050565b61236981611a5b565b82525050565b61237881611e16565b82525050565b6040820160008201516123946000850182612360565b5060208201516123a7602085018261236f565b50505050565b60006123b9838361237e565b60408301905092915050565b6000602082019050919050565b60006123dd82612334565b6123e7818561233f565b93506123f283612350565b8060005b8381101561242357815161240a88826123ad565b9750612415836123c5565b9250506001810190506123f6565b5085935050505092915050565b600060a083016000830151848203600086015261244d82826122fb565b9150506020830151848203602086015261246782826122fb565b9150506040830151848203604086015261248182826123d2565b91505060608301516124966060860182612360565b50608083015184820360808601526124ae82826122fb565b9150508091505092915050565b60006040820190506124d060008301856122d0565b81810360208301526124e28184612430565b90509392505050565b60006040820190506125006000830185611f9b565b61250d6020830184611f9b565b9392505050565b60008151905061252381612057565b92915050565b60006020828403121561253f5761253e61189d565b5b600061254d84828501612514565b91505092915050565b600082825260208201905092915050565b6000612572826122df565b61257c8185612556565b935061258c818560208601611997565b612595816119c1565b840191505092915050565b60006080820190506125b56000830187611bed565b81810360208301526125c78186612567565b90506125d66040830185611bed565b6125e36060830184611f9b565b95945050505050565b60006040820190506126016000830185611f9b565b61260e6020830184611bed565b9392505050565b7f4f6e6c792063616c6c61626c65206279206f776e657200000000000000000000600082015250565b600061264b601683611986565b915061265682612615565b602082019050919050565b6000602082019050818103600083015261267a8161263e565b9050919050565b60006040820190506126966000830185611bed565b6126a36020830184611f9b565b9392505050565b6000604082840312156126c0576126bf61204d565b5b6126ca6040611cc1565b905060006126da84828501611f13565b60008301525060206126ee8482850161228e565b60208301525092915050565b6000604082840312156127105761270f61189d565b5b600061271e848285016126aa565b91505092915050565b6127308161192c565b811461273b57600080fd5b50565b60008151905061274d81612727565b92915050565b6000602082840312156127695761276861189d565b5b60006127778482850161273e565b91505092915050565b7f43616e6e6f74207472616e7366657220746f2073656c66000000000000000000600082015250565b60006127b6601783611986565b91506127c182612780565b602082019050919050565b600060208201905081810360008301526127e5816127a9565b9050919050565b7f5361666545524332303a204552433230206f7065726174696f6e20646964206e60008201527f6f74207375636365656400000000000000000000000000000000000000000000602082015250565b6000612848602a83611986565b9150612853826127ec565b604082019050919050565b600060208201905081810360008301526128778161283b565b9050919050565b6128878161192c565b82525050565b6040820160008201516128a3600085018261236f565b5060208201516128b6602085018261287e565b50505050565b60006040820190506128d1600083018461288d565b92915050565b7f416464726573733a20696e73756666696369656e742062616c616e636520666f60008201527f722063616c6c0000000000000000000000000000000000000000000000000000602082015250565b6000612933602683611986565b915061293e826128d7565b604082019050919050565b6000602082019050818103600083015261296281612926565b9050919050565b6000612974826122df565b61297e8185611f55565b935061298e818560208601611997565b80840191505092915050565b60006129a68284612969565b915081905092915050565b7f416464726573733a2063616c6c20746f206e6f6e2d636f6e7472616374000000600082015250565b60006129e7601d83611986565b91506129f2826129b1565b602082019050919050565b60006020820190508181036000830152612a16816129da565b9050919050565b60006020820190508181036000830152612a3781846119d2565b90509291505056fea2646970667358221220050e9488fc8b13674ed30d36b66ab3503bc66eab322b144672d104c133b1aa0c64736f6c634300081c0033",
  "devdoc": {
    "kind": "dev",
    "methods": {
      "ccipReceive((bytes32,uint64,bytes,bytes,(address,uint256)[]))": {
        "details": "Note ensure you check the msg.sender is the OffRampRouter.",
        "params": {
          "message": "CCIP Message."
        }
      },
      "constructor": {
        "params": {
          "_link": "The address of the link contract.",
          "_router": "The address of the router contract."
        }
      },
      "getLastReceivedMessageDetails()": {
        "returns": {
          "messageId": "The ID of the last received message.",
          "text": "The last received text."
        }
      },
      "getRouter()": {
        "returns": {
          "_0": "CCIP router address"
        }
      },
      "sendMessagePayNative(uint64,address,bytes)": {
        "details": "Assumes your contract has sufficient native gas tokens.",
        "params": {
          "_destinationChainSelector": "The identifier (aka selector) for the destination blockchain.",
          "_receiver": "The address of the recipient on the destination blockchain.",
          "_text": "The text to be sent."
        },
        "returns": {
          "messageId": "The ID of the CCIP message that was sent."
        }
      },
      "supportsInterface(bytes4)": {
        "details": "Should indicate whether the contract implements IAny2EVMMessageReceiver. e.g. return interfaceId == type(IAny2EVMMessageReceiver).interfaceId || interfaceId == type(IERC165).interfaceId This allows CCIP to check if ccipReceive is available before calling it. - If this returns false or reverts, only tokens are transferred to the receiver. - If this returns true, tokens are transferred and ccipReceive is called atomically. Additionally, if the receiver address does not have code associated with it at the time of execution (EXTCODESIZE returns 0), only tokens will be transferred.",
        "params": {
          "interfaceId": "The interfaceId to check."
        },
        "returns": {
          "_0": "true if the interfaceId is supported."
        }
      },
      "withdraw(address)": {
        "details": "This function reverts if there are no funds to withdraw or if the transfer fails. It should only be callable by the owner of the contract.",
        "params": {
          "_beneficiary": "The address to which the Ether should be sent."
        }
      },
      "withdrawToken(address,address)": {
        "details": "This function reverts with a 'NothingToWithdraw' error if there are no tokens to withdraw.",
        "params": {
          "_beneficiary": "The address to which the tokens will be sent.",
          "_token": "The contract address of the ERC20 token to be withdrawn."
        }
      }
    },
    "title": "- A simple messenger contract for sending/receiving string data across chains.",
    "version": 1
  },
  "userdoc": {
    "kind": "user",
    "methods": {
      "acceptOwnership()": {
        "notice": "Allows an ownership transfer to be completed by the recipient."
      },
      "ccipReceive((bytes32,uint64,bytes,bytes,(address,uint256)[]))": {
        "notice": "Called by the Router to deliver a message. If this reverts, any token transfers also revert. The message will move to a FAILED state and become available for manual execution."
      },
      "constructor": {
        "notice": "Constructor initializes the contract with the router address."
      },
      "getLastReceivedMessageDetails()": {
        "notice": "Fetches the details of the last received message."
      },
      "getRouter()": {
        "notice": "Return the current router"
      },
      "owner()": {
        "notice": "Get the current owner"
      },
      "sendMessagePayNative(uint64,address,bytes)": {
        "notice": "Sends data to receiver on the destination chain.Pay for fees in native gas."
      },
      "supportsInterface(bytes4)": {
        "notice": "IERC165 supports an interfaceId."
      },
      "transferOwnership(address)": {
        "notice": "Allows an owner to begin transferring ownership to a new address."
      },
      "withdraw(address)": {
        "notice": "Allows the contract owner to withdraw the entire balance of Ether from the contract."
      },
      "withdrawToken(address,address)": {
        "notice": "Allows the owner of the contract to withdraw all tokens of a specific ERC20 token."
      }
    },
    "version": 1
  },
  "storageLayout": {
    "storage": [
      {
        "astId": 352,
        "contract": "contracts/NFTPoolLockAndRelease.sol:NFTPoolLockAndRelease",
        "label": "s_owner",
        "offset": 0,
        "slot": "0",
        "type": "t_address"
      },
      {
        "astId": 354,
        "contract": "contracts/NFTPoolLockAndRelease.sol:NFTPoolLockAndRelease",
        "label": "s_pendingOwner",
        "offset": 0,
        "slot": "1",
        "type": "t_address"
      },
      {
        "astId": 8635,
        "contract": "contracts/NFTPoolLockAndRelease.sol:NFTPoolLockAndRelease",
        "label": "s_lastReceivedMessageId",
        "offset": 0,
        "slot": "2",
        "type": "t_bytes32"
      },
      {
        "astId": 8637,
        "contract": "contracts/NFTPoolLockAndRelease.sol:NFTPoolLockAndRelease",
        "label": "s_lastReceivedText",
        "offset": 0,
        "slot": "3",
        "type": "t_string_storage"
      },
      {
        "astId": 8640,
        "contract": "contracts/NFTPoolLockAndRelease.sol:NFTPoolLockAndRelease",
        "label": "s_linkToken",
        "offset": 0,
        "slot": "4",
        "type": "t_contract(IERC20)616"
      },
      {
        "astId": 8643,
        "contract": "contracts/NFTPoolLockAndRelease.sol:NFTPoolLockAndRelease",
        "label": "nft",
        "offset": 0,
        "slot": "5",
        "type": "t_contract(MyToken)8558"
      }
    ],
    "types": {
      "t_address": {
        "encoding": "inplace",
        "label": "address",
        "numberOfBytes": "20"
      },
      "t_bytes32": {
        "encoding": "inplace",
        "label": "bytes32",
        "numberOfBytes": "32"
      },
      "t_contract(IERC20)616": {
        "encoding": "inplace",
        "label": "contract IERC20",
        "numberOfBytes": "20"
      },
      "t_contract(MyToken)8558": {
        "encoding": "inplace",
        "label": "contract MyToken",
        "numberOfBytes": "20"
      },
      "t_string_storage": {
        "encoding": "bytes",
        "label": "string",
        "numberOfBytes": "32"
      }
    }
  }
}